:020000040800F2
:1000000000300020350A0008850A0008850A00082B
:10001000850A0008850A0008850A0008000000001B
:10002000000000000000000000000000850A000839
:10003000850A000800000000850A000891090008F0
:10004000850A0008850A0008850A0008850A000854
:10005000850A0008850A0008850A0008850A000844
:10006000850A0008850A0008850A0008850A000834
:10007000850A0008850A0008850A0008850A000824
:10008000850A0008850A0008850A0008850A000814
:10009000850A0008850A0008850A0008850A000804
:1000A000850A0008850A0008850A0008850A0008F4
:1000B000850A0008850A000800000000850A00087B
:1000C000850A00080000000000000000850A000802
:1000D00000000000850A0008850A0008850A00085B
:1000E000850A0008850A00080000000000000000E2
:1000F0000000000000000000000000000000000000
:1001000000000000000000000000000000000000EF
:100110000000000000000000850A0008850A0008B1
:1001200000000000000000000000000000000000CF
:1001300000000000000000000000000000000000BF
:10014000850A0008850A000800000000850A0008EA
:10015000850A0008850A0008850A0008850A000843
:10016000850A0008850A0008000000000000000061
:10017000000000000000000000000000000000007F
:0801800000000000850A0008E0
:1001880010B5054C237833B9044B13B10448AFF3C9
:1001980000800123237010BD3C04002000000000F3
:1001A800EC0B000808B5034B1BB103490348AFF338
:1001B800008008BD0000000040040020EC0B00088F
:1001C80080B500AF084B1B68074A43F01003136063
:1001D800032000F02FF90F2000F008F800F028FBAA
:1001E8000023184680BD00BF0020024080B582B0C1
:1001F80000AF7860124B1A68124B1B7819464FF4FF
:100208007A73B3FBF1F3B2FBF3F3184600F039F954
:100218000346002B01D001230EE07B680F2B0AD880
:10022800002279684FF0FF3000F00FF9064A7B682A
:100238001360002300E0012318460837BD4680BD3F
:1002480008000020040000200000002080B400AF57
:10025800064B1B781A46064B1B681344044A136066
:1002680000BFBD465DF8047B704700BF0400002056
:100278005804002080B400AF034B1B681846BD46E5
:100288005DF8047B704700BF5804002080B584B037
:1002980000AF7860FFF7EEFFB8607B68FB60FB6833
:1002A800B3F1FF3F05D0094B1B781A46FB6813448E
:1002B800FB6000BFFFF7DEFF0246BB68D31AFA688F
:1002C8009A42F7D800BF1037BD4680BD0400002011
:1002D80080B485B000AF78607B6803F00703FB60EB
:1002E8000C4BDB68BB60BA684FF6FF031340BB607A
:1002F800FB681A02BB68134343F0BF6343F400333F
:10030800BB60044ABB68D36000BF1437BD465DF8C4
:10031800047B704700ED00E080B400AF044BDB685D
:100328001B0A03F007031846BD465DF8047B7047B7
:1003380000ED00E080B483B000AF03463960FB7184
:1003480097F90730002B0BDA3B68DAB20C49FB79D6
:1003580003F00F03043B1201D2B20B441A7609E0F2
:100368003B68DAB2074997F907301201D2B20B4459
:1003780083F8002300BF0C37BD465DF8047B704747
:1003880000ED00E000E100E080B489B000AFF86063
:10039800B9607A60FB6803F00703FB61FB69C3F18E
:1003A8000703042B28BF0423BB61FB690433062B16
:1003B80002D9FB69033B00E000237B614FF0FF3269
:1003C800BB6902FA03F3DA43BB681A407B699A40B7
:1003D8004FF0FF317B6901FA03F3D9437B680B4087
:1003E800134318462437BD465DF8047B7047000068
:1003F80080B582B000AF78607B68013BB3F1807F45
:1004080001D301230FE00A4A7B68013B53600F21A7
:100418004FF0FF30FFF78EFF054B00229A60044B28
:1004280007221A60002318460837BD4680BD00BF62
:1004380010E000E080B582B000AF78607868FFF720
:1004480047FF00BF0837BD4680BD80B586B000AF06
:100458000346B9607A60FB7300237B61FFF75CFF9A
:1004680078617A68B9687869FFF78EFF024697F96C
:100478000F3011461846FFF75DFF00BF1837BD461D
:1004880080BD80B582B000AF78607868FFF7B0FFB4
:10049800034618460837BD4680BD000080B483B0C7
:1004A80000AF78607B68042B06D1094B1B68084AAB
:1004B80043F00403136005E0054B1B68044A23F06E
:1004C8000403136000BF0C37BD465DF8047B70471A
:1004D80010E000E080B500AF00F002F800BF80BD7A
:1004E80080B400AF00BFBD465DF8047B70470000D4
:1004F80080B487B000AF7860396000237B61002347
:10050800FB6000233B614EE13B681A6801217B696F
:1005180001FA03F31340FB60FB68002B00F04081F5
:100528003B685B68022B03D03B685B68122B23D1C6
:100538007B69DA087B68083253F822303B617B69B3
:1005480003F007039B000F2202FA03F3DB433A6927
:1005580013403B613B681A697B6903F007039B0002
:1005680002FA03F33A6913433B617B69DA087B6853
:100578000832396943F822107B681B683B617B6944
:100588005B00032202FA03F3DB433A6913403B6141
:100598003B685B6803F003027B695B0002FA03F3C4
:1005A8003A6913433B617B683A691A603B685B6848
:1005B800012B0BD03B685B68022B07D03B685B685C
:1005C800112B03D03B685B68122B30D17B689B688A
:1005D8003B617B695B00032202FA03F3DB433A6960
:1005E80013403B613B68DA687B695B0002FA03F3FE
:1005F8003A6913433B617B683A699A607B685B6838
:100608003B6101227B6902FA03F3DB433A69134039
:100618003B613B685B681B0903F001027B6902FAD6
:1006280003F33A6913433B617B683A695A607B6814
:10063800DB683B617B695B00032202FA03F3DB435F
:100648003A6913403B613B689A687B695B0002FA30
:1006580003F33A6913433B617B683A69DA603B68A4
:100668005B6803F08053002B00F09A80554B9B6920
:10067800544A43F001039361524B9B6903F0010311
:10068800BB60BB68504A7B699B08023352F8233031
:100698003B617B6903F003039B000F2202FA03F31B
:1006A800DB433A6913403B617B68B3F1904F13D049
:1006B8007B68464A93420DD07B68454A934207D0EF
:1006C8007B68444A934201D1032306E0052304E0F2
:1006D800022302E0012300E000237A6902F003020A
:1006E800920093403A6913433B6137497B699B0801
:1006F80002333A6941F82320374B1B683B61FB689A
:10070800DB433A6913403B613B685B6803F4803321
:10071800002B03D03A69FB6813433B612E4A3B69BF
:1007280013602D4B5B683B61FB68DB433A69134000
:100738003B613B685B6803F40033002B03D03A69E4
:10074800FB6813433B61244A3B695360224B9B6817
:100758003B61FB68DB433A6913403B613B685B687C
:1007680003F48013002B03D03A69FB6813433B6101
:10077800194A3B699360184BDB683B61FB68DB43B4
:100788003A6913403B613B685B6803F40013002B34
:1007980003D03A69FB6813433B610F4A3B69D36056
:1007A8007B6901337B613B681A687B6922FA03F332
:1007B800002B7FF4A9AE00BF1C37BD465DF8047B53
:1007C800704700BF001002400000014000040048CC
:1007D80000080048000C00480004014080B483B0C1
:1007E80000AF78600B467B8013467B707B78002BCC
:1007F80003D07A887B689A6102E07A887B689A627B
:1008080000BF0C37BD465DF8047B704780B483B0E9
:1008180000AF78600B467B807B685A697B885A40BA
:100828007B685A6100BF0C37BD465DF8047B704792
:1008380080B400AF00BFBD465DF8047B7047000080
:1008480080B400AF034B1B681846BD465DF8047BB7
:10085800704700BF0800002080B590B000AF0123AA
:10086800BB614FF4A023FB6100233B620123BB6201
:1008780002237B634FF48033BB634FF4E013FB63C5
:100888000F237B600223BB600023FB604FF480636F
:100898003B6100237B61FFF7D3FF0246094BA3FBB3
:1008A80002239B091846FFF7ECFD0420FFF7F6FD2D
:1008B80000220F214FF0FF30FFF7C7FD00BF403780
:1008C800BD4680BDD34D621080B58AB000AF244BC1
:1008D8005B69234A43F400235361214B5B6903F4AA
:1008E80000233B613B691E4B5B691D4A43F480034F
:1008F80053611B4B5B6903F48003FB60FB68184B77
:100908005B69174A43F400335361154B5B6903F481
:100918000033BB60BB68124B5B69114A43F4802308
:1009280053610F4B5B6903F480237B607B68002273
:1009380020214FF09040FFF751FF20237B610123D6
:10094800BB610023FB6100233B6207F114031946D6
:100958004FF09040FFF7CCFD00BF2837BD4680BD63
:100968000010024080B500AFFFF72AFCFFF774FFC4
:10097800FFF7AAFF20214FF09040FFF747FF41F211
:100988008830FFF783FCF5E780B500AFFFF75EFC22
:10099800FFF7A0FD00BF80BD80B400AF1F4BD3F8A8
:1009A80088301E4A43F47003C2F888301C4B1B6819
:1009B8001B4A43F001031360194B5A681849194B35
:1009C80013404B60164B1B68154A23F0847323F4BD
:1009D80080331360124B1B68114A23F48023136081
:1009E8000F4B5B680E4A23F4FE0353600C4BDB6A23
:1009F8000B4A23F00F03D362094B1A6B08490A4BC1
:100A080013400B63064B00229A60044B4FF00062C0
:100A18009A6000BFBD465DF8047B704700ED00E0BA
:100A2800001002400CC07FF8CCFC00FFDFF834D087
:100A3800002103E00C4B5B58435004310B480C4B2E
:100A480042189A42F6D30B4A02E0002342F8043BCC
:100A5800094B9A42F9D3FFF79FFF00F011F8FFF70F
:100A680081FFFEE700300020140C00080000002081
:100A78003C0400203C04002080040020FEE7000025
:100A880070B50D4E0D4D761BB61006D000240134FE
:100A980055F8043B9847A642F9D1094E094D761BF3
:100AA80000F0A0F8B61006D00024013455F8043B35
:100AB8009847A642F9D170BD080C0008080C000838
:100AC800100C0008080C0008024B13B1024800F093
:100AD80005B8704700000000F10A0008002301462D
:100AE8001A46184600F01EB838B50A4C0A4D641B61
:100AF800A4100AD004F18043013B05EB8305013CB7
:100B080055F804399847002CF9D1BDE8384000F071
:100B18006FB800BF140C0008100C0008704700BF25
:100B2800704700BF2DE9F8432B4D064628689846C4
:100B38000F469146FFF7F2FF284B1C68D4F848315E
:100B4800002B3DD05A681F2A0DDC02F1010C16BBA0
:100B58000232C3F804C0286843F82270FFF7E0FFA8
:100B68000020BDE8F8831E4B7BB34FF4C870AFF389
:100B78000080034648B3D4F848210021C0E9002189
:100B88004FF0010CC4F848010A46C0F88811C0F8B3
:100B98008C11002EDCD003EB82010124C1F888906F
:100BA800D3F8880194402043022EC3F88801C1F885
:100BB8000881CDD1D3F88C110C43C3F88C41C7E719
:100BC80004F5A673C4F84831BCE72868FFF7A8FF06
:100BD8004FF0FF30C5E700BF38040020040C0008C0
:100BE80000000000F8B500BFF8BC08BC9E4670477E
:0C0BF800F8B500BFF8BC08BC9E46704772
:040C040010000020BC
:080C0800D10A0008AD0100084B
:040C1000890100084E
:100C1400100000000100000000127A000000000033
:100C240000000000FC02002064030020CC0300202C
:100C340000000000000000000000000000000000B0
:100C440000000000000000000000000000000000A0
:100C54000000000000000000000000000000000090
:100C64000000000000000000000000000000000080
:100C74000000000000000000000000000000000070
:100C84000000000000000000000000000000000060
:100C94000000000000000000000000000000000050
:100CA4000000000000000000000000000000000040
:100CB4000000000000000000000000000000000030
:100CC400000000000000000001000000000000001F
:100CD4000E33CDAB34126DE6ECDE05000B000000E4
:100CE4000000000000000000000000000000000000
:100CF40000000000000000000000000000000000F0
:100D040000000000000000000000000000000000DF
:100D140000000000000000000000000000000000CF
:0C10440000000000000000005C04002020
:0400000508000A35B0
:00000001FF
