:020000040800F2
:100000000030002095140008E5140008E5140008ED
:10001000E5140008E5140008E514000800000000DD
:10002000000000000000000000000000E5140008CF
:10003000E514000800000000E5140008051200089F
:10004000E5140008E5140008E5140008E5140008AC
:10005000E5140008E5140008E5140008E51400089C
:10006000E5140008E5140008E5140008E51400088C
:10007000E5140008E5140008E5140008E51400087C
:10008000E5140008E5140008E5140008E51400086C
:10009000E5140008E5140008E5140008E51400085C
:1000A000E5140008E5140008E5140008E51400084C
:1000B000E5140008E514000800000000E51400083D
:1000C000E51400080000000000000000E51400082E
:1000D00000000000E5140008E5140008E51400081D
:1000E000E5140008E514000800000000000000000E
:1000F0000000000000000000000000000000000000
:1001000000000000000000000000000000000000EF
:100110000000000000000000E5140008E5140008DD
:1001200000000000000000000000000000000000CF
:1001300000000000000000000000000000000000BF
:10014000E5140008E514000800000000E5140008AC
:10015000E5140008E5140008E5140008E51400089B
:10016000E5140008E514000800000000000000008D
:10017000000000000000000000000000000000007F
:0801800000000000E514000876
:1001C00010B5054C237833B9044B13B10448AFF391
:1001D00000800123237010BD3C04002000000000BB
:1001E0004C16000808B5034B1BB103490348AFF395
:1001F000008008BD00000000400400204C160008EC
:1002000090F800F06DE9024520F007016FF0000C56
:1002100010F0070491F820F040F049804FF00004FE
:100220006FF00700D1E9002391F840F000F10800D9
:1002300082FA4CF2A4FA8CF283FA4CF3A2FA8CF311
:100240004BBBD1E9022382FA4CF200F10800A4FA78
:100250008CF283FA4CF3A2FA8CF3E3B9D1E90423CC
:1002600082FA4CF200F10800A4FA8CF283FA4CF303
:10027000A2FA8CF37BB9D1E9062301F1200182FABD
:100280004CF200F10800A4FA8CF283FA4CF3A2FAC3
:100290008CF3002BC6D0002A04BF04301A4612BAD1
:1002A000B2FA82F2FDE8024500EBD2007047D1E9D4
:1002B000002304F00305C4F100004FEAC50514F063
:1002C000040F91F840F00CFA05F562EA05021CBF34
:1002D00063EA050362464FF00004A9E780B500AF6A
:1002E000084B1B68074A43F010031360032000F01B
:1002F0002FF90F2000F008F800F028FB0023184623
:1003000080BD00BF0020024080B582B000AF7860A1
:10031000124B1A68124B1B7819464FF47A73B3FBD1
:10032000F1F3B2FBF3F3184600F039F90346002B62
:1003300001D001230EE07B680F2B0AD800227968D8
:100340004FF0FF3000F00FF9064A7B68136000237E
:1003500000E0012318460837BD4680BD0800002094
:10036000040000200000002080B400AF064B1B7882
:100370001A46064B1B681344044A136000BFBD466F
:100380005DF8047B704700BF040000205804002083
:1003900080B400AF034B1B681846BD465DF8047B74
:1003A000704700BF5804002080B584B000AF78606B
:1003B000FFF7EEFFB8607B68FB60FB68B3F1FF3FBF
:1003C00005D0094B1B781A46FB681344FB6000BF3D
:1003D000FFF7DEFF0246BB68D31AFA689A42F7D8E5
:1003E00000BF1037BD4680BD0400002080B485B03A
:1003F00000AF78607B6803F00703FB600C4BDB68A1
:10040000BB60BA684FF6FF031340BB60FB681A027B
:10041000BB68134343F0BF6343F40033BB60044A3B
:10042000BB68D36000BF1437BD465DF8047B7047DE
:1004300000ED00E080B400AF044BDB681B0A03F062
:1004400007031846BD465DF8047B704700ED00E0E9
:1004500080B483B000AF03463960FB7197F9073071
:10046000002B0BDA3B68DAB20C49FB7903F00F037F
:10047000043B1201D2B20B441A7609E03B68DAB2AF
:10048000074997F907301201D2B20B4483F80023D1
:1004900000BF0C37BD465DF8047B704700ED00E0FF
:1004A00000E100E080B489B000AFF860B9607A6024
:1004B000FB6803F00703FB61FB69C3F10703042B2F
:1004C00028BF0423BB61FB690433062B02D9FB69F7
:1004D000033B00E000237B614FF0FF32BB6902FA6F
:1004E00003F3DA43BB681A407B699A404FF0FF314F
:1004F0007B6901FA03F3D9437B680B401343184629
:100500002437BD465DF8047B7047000080B582B09B
:1005100000AF78607B68013BB3F1807F01D301239A
:100520000FE00A4A7B68013B53600F214FF0FF3018
:10053000FFF78EFF054B00229A60044B07221A60DA
:10054000002318460837BD4680BD00BF10E000E01C
:1005500080B582B000AF78607868FFF747FF00BFD2
:100560000837BD4680BD80B586B000AF0346B96090
:100570007A60FB7300237B61FFF75CFF78617A6828
:10058000B9687869FFF78EFF024697F90F30114678
:100590001846FFF75DFF00BF1837BD4680BD80B528
:1005A00082B000AF78607868FFF7B0FF0346184666
:1005B0000837BD4680BD000080B483B000AF7860CE
:1005C0007B68042B06D1094B1B68084A43F00403DF
:1005D000136005E0054B1B68044A23F00403136015
:1005E00000BF0C37BD465DF8047B704710E000E0AB
:1005F00080B500AF00F002F800BF80BD80B400AF4E
:1006000000BFBD465DF8047B7047000080B487B032
:1006100000AF7860396000237B610023FB6000231A
:100620003B614EE13B681A6801217B6901FA03F3E3
:100630001340FB60FB68002B00F040813B685B6867
:10064000022B03D03B685B68122B23D17B69DA084D
:100650007B68083253F822303B617B6903F0070363
:100660009B000F2202FA03F3DB433A6913403B611C
:100670003B681A697B6903F007039B0002FA03F3E6
:100680003A6913433B617B69DA087B680832396950
:1006900043F822107B681B683B617B695B00032287
:1006A00002FA03F3DB433A6913403B613B685B6842
:1006B00003F003027B695B0002FA03F33A69134318
:1006C0003B617B683A691A603B685B68012B0BD021
:1006D0003B685B68022B07D03B685B68112B03D03B
:1006E0003B685B68122B30D17B689B683B617B6900
:1006F0005B00032202FA03F3DB433A6913403B61D8
:100700003B68DA687B695B0002FA03F33A691343DA
:100710003B617B683A699A607B685B683B61012258
:100720007B6902FA03F3DB433A6913403B613B68A0
:100730005B681B0903F001027B6902FA03F33A6963
:1007400013433B617B683A695A607B68DB683B61B5
:100750007B695B00032202FA03F3DB433A6913402F
:100760003B613B689A687B695B0002FA03F33A6974
:1007700013433B617B683A69DA603B685B6803F06E
:100780008053002B00F09A80554B9B69544A43F0EC
:1007900001039361524B9B6903F00103BB60BB688B
:1007A000504A7B699B08023352F823303B617B69D6
:1007B00003F003039B000F2202FA03F3DB433A69C1
:1007C00013403B617B68B3F1904F13D07B68464A7E
:1007D00093420DD07B68454A934207D07B68444AD8
:1007E000934201D1032306E0052304E0022302E043
:1007F000012300E000237A6902F003029200934093
:100800003A6913433B6137497B699B0802333A6974
:1008100041F82320374B1B683B61FB68DB433A6997
:1008200013403B613B685B6803F48033002B03D0CB
:100830003A69FB6813433B612E4A3B6913602D4BB9
:100840005B683B61FB68DB433A6913403B613B6893
:100850005B6803F40033002B03D03A69FB68134351
:100860003B61244A3B695360224B9B683B61FB68B8
:10087000DB433A6913403B613B685B6803F48013D8
:10088000002B03D03A69FB6813433B61194A3B696B
:100890009360184BDB683B61FB68DB433A691340AC
:1008A0003B613B685B6803F40013002B03D03A699B
:1008B000FB6813433B610F4A3B69D3607B6901339B
:1008C0007B613B681A687B6922FA03F3002B7FF493
:1008D000A9AE00BF1C37BD465DF8047B704700BF62
:1008E00000100240000001400004004800080048D9
:1008F000000C00480004014080B483B000AF786071
:100900000B467B8013467B707B78002B03D07A8864
:100910007B689A6102E07A887B689A6200BF0C3734
:10092000BD465DF8047B704780B483B000AF78604B
:100930000B467B807B685A697B885A407B685A618A
:1009400000BF0C37BD465DF8047B704780B400AF34
:1009500000BFBD465DF8047B7047000080B48BB0DB
:1009600000AF0023FB610023BB6100237B620023F7
:100970007B6100233B62294B5B68FB61FB6903F0F1
:100980000C03042B02D0082B03D03CE0244B3B6229
:100990003CE0FB6903F470124FF47013BB60BB685A
:1009A00093FAA3F37B607B68B3FA83F322FA03F331
:1009B0001C4AD35C7B61194BDB6A03F00F020F23E7
:1009C0003B613B6993FAA3F3FB60FB68B3FA83F3E3
:1009D00022FA03F3144AD35CBB61FB6903F480334E
:1009E000002B08D00E4ABB69B2FBF3F27B6902FB15
:1009F00003F37B6204E07B690C4A02FB03F37B6236
:100A00007B6A3B6202E0064B3B6200BF3B6A1846D2
:100A10002C37BD465DF8047B704700BF00100240D4
:100A200000127A00641600087416000800093D00E0
:100A300080B400AF034B1B681846BD465DF8047BCD
:100A4000704700BF0800002080B582B000AFFFF7FC
:100A5000EFFF01460B4B5B6803F4E0624FF4E06389
:100A60007B607B6893FAA3F33B603B68B3FA83F344
:100A700022FA03F3044AD35C21FA03F31846083739
:100A8000BD4680BD00100240A816000880B582B0A7
:100A900000AFFFF7CDFF01460B4B5B6803F46052DC
:100AA0004FF460537B607B6893FAA3F33B603B6831
:100AB000B3FA83F322FA03F3044AD35C21FA03F373
:100AC00018460837BD4680BD00100240A816000831
:100AD00080B582B000AF78607B68002B01D1012324
:100AE00043E07B6893F86930DBB2002B06D17B686A
:100AF000002283F86820786800F03CFC7B682422A0
:100B000083F869207B681B681A687B681B6822F081
:100B100001021A60786800F0B9F80346012B01D190
:100B2000012322E07B685B6A002B02D0786800F02A
:100B300013FA7B681B685A687B681B6822F4904232
:100B40005A607B681B689A687B681B6822F02A02DF
:100B50009A607B681B681A687B681B6842F0010218
:100B60001A60786800F09AFA034618460837BD46BE
:100B700080BD80B588B002AFF860B9603B601346B5
:100B8000FB8000237B61FB6893F86930DBB2202B8C
:100B900077D1BB68002B02D0FB88002B01D1012349
:100BA00070E0FB6893F86830012B01D1022369E003
:100BB000FB68012283F86820FB680022DA66FB6884
:100BC000212283F86920FFF7E3FB7861FB68FA884C
:100BD000A3F85020FB68FA88A3F8522034E0FB68A1
:100BE000B3F852309BB2013B9AB2FB68A3F8522093
:100BF0003B6800937B6900228021F86800F097FA37
:100C00000346002B01D003233CE0FB689B68B3F54F
:100C1000805F11D1FB681B69002B0DD1BB683B6164
:100C20003B691A88FB681B68C2F3080292B21A85F6
:100C3000BB680233BB6007E0BB685A1CBA601A7815
:100C4000FB681B6892B21A85FB68B3F852309BB2FE
:100C5000002BC4D13B6800937B6900224021F868D7
:100C600000F065FA0346002B01D003230AE0FB687D
:100C7000202283F86920FB68002283F86820002383
:100C800000E0022318461837BD4680BD80B586B007
:100C900000AF78600023FB601023FB7500237B818D
:100CA0000023BB820023FB747B689A687B681B6906
:100CB0001A437B685B691A437B68DB691343FB60FB
:100CC0007B681B681A689F4B13407A681268F96842
:100CD0000B4313607B681B685B6823F440517B689F
:100CE000DA687B681B680A435A607B689A697B688C
:100CF0001B6A1343FB607B681B689B6823F43061AD
:100D00007B681B68FA680A439A607B681B688E4A96
:100D1000934221D18D4B1B6B03F00303032B17D898
:100D200001A252F823F000BF390D0008450D00085C
:100D30004B0D00083F0D00080023FB751EE0022349
:100D4000FB751BE00423FB7518E00823FB7515E019
:100D50001023FB7500BF11E07B681B687C4A93423F
:100D600002D10023FB7509E07B681B68794A934236
:100D700002D10023FB7501E01023FB757B68DB6962
:100D8000B3F5004F6FD1FB7D082B57D801A252F865
:100D900023F000BFB90D0008D50D0008F10D0008C3
:100DA0003D0E00080B0E00083D0E00083D0E000829
:100DB0003D0E0008270E0008FFF746FE03465A00C6
:100DC0007B685B685B081A447B685B68B2FBF3F383
:100DD000BB8236E0FFF75AFE03465A007B685B6829
:100DE0005B081A447B685B68B2FBF3F3BB8228E0C4
:100DF0007B685B685B0803F5740303F510537A683E
:100E00005268B3FBF2F3BB821BE0FFF7A7FD03467A
:100E10005A007B685B685B081A447B685B68B2FBBE
:100E2000F3F3BB820DE07B685B685B0803F58032FF
:100E30007B685B68B2FBF3F3BB8202E00123FB74C7
:100E400000BFBB8A23F00F037B81BB8A5B109BB280
:100E500003F007039AB27B8913437B817B681B688D
:100E60007A89DA6069E0FB7D082B63D801A252F829
:100E700023F000BF990E0008B90E0008D90E000833
:100E8000350F0008F90E0008350F0008350F00086F
:100E9000350F0008190F0008FFF7D6FD02467B68E2
:100EA0005B685B081A447B685B68B2FBF3F39AB239
:100EB0007B681B68DA6040E0FFF7E8FD02467B686C
:100EC0005B685B081A447B685B68B2FBF3F39AB219
:100ED0007B681B68DA6030E07B685B685B0803F561
:100EE000F40303F590537A685268B3FBF2F39AB2B5
:100EF0007B681B68DA6020E0FFF730FD02467B6804
:100F00005B685B081A447B685B68B2FBF3F39AB2D8
:100F10007B681B68DA6010E07B685B685B0803F540
:100F200000427B685B68B2FBF3F39AB27B681B6894
:100F3000DA6002E00123FB7400BFFB7C184618371F
:100F4000BD4680BDF369FFEF00380140001002404C
:100F5000004400400048004080B483B000AF786097
:100F60007B685B6A03F00103002B0AD07B681B6877
:100F70005B6823F400317B689A6A7B681B680A43CC
:100F80005A607B685B6A03F00203002B0AD07B681F
:100F90001B685B6823F480317B68DA6A7B681B68B6
:100FA0000A435A607B685B6A03F00403002B0AD093
:100FB0007B681B685B6823F480217B681A6B7B6805
:100FC0001B680A435A607B685B6A03F00803002BC6
:100FD0000AD07B681B685B6823F400417B685A6B0E
:100FE0007B681B680A435A607B685B6A03F01003E6
:100FF000002B0AD07B681B689B6823F480517B68B8
:101000009A6B7B681B680A439A607B685B6A03F093
:101010002003002B0AD07B681B689B6823F40051D7
:101020007B68DA6B7B681B680A439A607B685B6A43
:1010300003F04003002B1AD07B681B685B6823F425
:1010400080117B681A6C7B681B680A435A607B6856
:101050001B6CB3F5801F0AD17B681B685B6823F4A7
:10106000C0017B685A6C7B681B680A435A607B68C6
:101070005B6A03F08003002B0AD07B681B685B6807
:1010800023F400217B689A6C7B681B680A435A60D2
:1010900000BF0C37BD465DF8047B704780B586B055
:1010A00002AF78600023FB607B680022DA66FFF7FE
:1010B0006FF9F8607B681B681B6803F00803082B56
:1010C0000ED16FF07E430093FB6800224FF40011B5
:1010D000786800F02CF80346002B01D0032322E0AF
:1010E0007B681B681B6803F00403042B0ED16FF0B0
:1010F0007E430093FB6800224FF48001786800F083
:1011000016F80346002B01D003230CE07B68202255
:1011100083F869207B68202283F86A207B6800229C
:1011200083F86820002318461037BD4680BD80B57F
:1011300084B000AFF860B9603B601346FB712CE0EF
:10114000BB69B3F1FF3F28D0BB69002B07D0FFF785
:101150001FF902463B68D31ABA699A421DD2FB684E
:101160001B681A68FB681B6822F4D0721A60FB685F
:101170001B689A68FB681B6822F001029A60FB6892
:10118000202283F86920FB68202283F86A20FB680C
:10119000002283F8682003230FE0FB681B68DA69EC
:1011A000BB681340BA689A420CBF01230023DBB22C
:1011B0001A46FB799A42C3D0002318461037BD4621
:1011C00080BD000080B582B000AF00F00DF9202195
:1011D0004FF09040FFF7A8FB084B7B607868FFF763
:1011E0000FF803469AB24FF6FF7379680448FFF789
:1011F000C0FC4FF4FA70FFF7D7F8E8E78416000850
:101200005C04002080B500AFFFF7AEF8FFF7F0F9FF
:1012100000BF80BD80B590B000AF0123BB614FF42B
:10122000A023FB6100233B620123BB6202237B639B
:101230004FF48033BB634FF4E013FB630F237B60F9
:101240000223BB600023FB604FF480633B610023FB
:101250007B61FFF7EDFB0246094BA3FB02239B09D1
:101260001846FFF79CF90420FFF7A6F900220F218A
:101270004FF0FF30FFF777F900BF4037BD4680BD24
:10128000D34D621080B58AB000AF244B5B69234A0E
:1012900043F400235361214B5B6903F400233B615A
:1012A0003B691E4B5B691D4A43F4800353611B4B32
:1012B0005B6903F48003FB60FB68184B5B69174AAA
:1012C00043F400335361154B5B6903F40033BB6097
:1012D000BB68124B5B69114A43F4802353610F4B87
:1012E0005B6903F480237B607B68002220214FF040
:1012F0009040FFF701FB20237B610123BB610023AA
:10130000FB6100233B6207F1140319464FF0904044
:10131000FFF77CF900BF2837BD4680BD00100240B2
:1013200080B500AF114B124A1A60104B4FF4E132F6
:101330005A600E4B00229A600C4B0022DA600B4B75
:1013400000221A61094B0C225A61084B00229A6153
:10135000064B0022DA61054B00221A62034B002281
:101360005A620248FFF7B4FB00BF80BD5C04002056
:101370000044004080B58AB000AF78607B681B688D
:10138000174A934228D1174B5B69164A43F400333E
:101390005361144B5B6903F400333B613B69114BB0
:1013A000DB69104A43F40033D3610E4BDB6903F46D
:1013B0000033FB60FB680C237B610223BB610023CD
:1013C000FB6100233B6207237B6207F1140319468C
:1013D0004FF09040FFF71AF900BF2837BD4680BD97
:1013E000004400400010024080B500AFFEF776FFD9
:1013F000FFF710FFFFF746FFFFF792FF00BF80BD2A
:1014000080B400AF1F4BD3F888301E4A43F47003FA
:10141000C2F888301C4B1B681B4A43F00103136061
:10142000194B5A681849194B13404B60164B1B68EF
:10143000154A23F0847323F480331360124B1B6826
:10144000114A23F4802313600F4B5B680E4A23F488
:10145000FE0353600C4BDB6A0B4A23F00F03D3628D
:10146000094B1A6B08490A4B13400B63064B0022C9
:101470009A60044B4FF000629A6000BFBD465DF871
:10148000047B704700ED00E0001002400CC07FF8C4
:10149000CCFC00FFDFF834D0002103E00C4B5B589C
:1014A000435004310B480C4B42189A42F6D30B4A76
:1014B00002E0002342F8043B094B9A42F9D3FFF7BC
:1014C0009FFF00F011F8FFF77DFEFEE700300020DF
:1014D000C0160008000000203C0400203C0400204E
:1014E000F0040020FEE7000070B50D4E0D4D761B98
:1014F000B61006D00024013455F8043B9847A642A4
:10150000F9D1094E094D761B00F0A0F8B61006D0AF
:101510000024013455F8043B9847A642F9D170BD28
:10152000B4160008B4160008BC160008B41600086B
:10153000024B13B1024800F005B8704700000000EC
:1015400051150008002301461A46184600F01EB83F
:1015500038B50A4C0A4D641BA4100AD004F180432C
:10156000013B05EB8305013C55F804399847002CF5
:10157000F9D1BDE8384000F06FB800BFC0160008D0
:10158000BC160008704700BF704700BF2DE9F84344
:101590002B4D0646286898460F469146FFF7F2FF06
:1015A000284B1C68D4F84831002B3DD05A681F2ABC
:1015B0000DDC02F1010C16BB0232C3F804C028682E
:1015C00043F82270FFF7E0FF0020BDE8F8831E4BD0
:1015D0007BB34FF4C870AFF30080034648B3D4F830
:1015E00048210021C0E900214FF0010CC4F8480156
:1015F0000A46C0F88811C0F88C11002EDCD003EB2D
:1016000082010124C1F88890D3F8880194402043D6
:10161000022EC3F88801C1F80881CDD1D3F88C110E
:101620000C43C3F88C41C7E704F5A673C4F84831EE
:10163000BCE72868FFF7A8FF4FF0FF30C5E700BF01
:1016400038040020B016000800000000F8B500BF04
:10165000F8BC08BC9E467047F8B500BFF8BC08BC93
:041660009E467047EB
:1016640002030405060708090A0B0C0D0E0F1010DF
:101674000102030405060708090A0B0C0D0E0F10DE
:1016840048656C6C6F204E75636C656F2046756E93
:10169400210A0D0000000000000000000102030404
:1016A40006070809000000000102030410000020DE
:0816B40031150008E5010008F2
:0416BC00C101000860
:1016C000100000000100000000127A00000000007D
:1016D00000000000FC02002064030020CC03002076
:1016E00000000000000000000000000000000000FA
:1016F00000000000000000000000000000000000EA
:1017000000000000000000000000000000000000D9
:1017100000000000000000000000000000000000C9
:1017200000000000000000000000000000000000B9
:1017300000000000000000000000000000000000A9
:101740000000000000000000000000000000000099
:101750000000000000000000000000000000000089
:101760000000000000000000000000000000000079
:101770000000000000000000010000000000000068
:101780000E33CDAB34126DE6ECDE05000B0000002D
:101790000000000000000000000000000000000049
:1017A0000000000000000000000000000000000039
:1017B0000000000000000000000000000000000029
:1017C0000000000000000000000000000000000019
:0C1AF0000000000000000000CC040020FA
:040000050800149546
:00000001FF
